{
  "contractName": "MyContract",
  "abi": [
    {
      "anonymous": false,
      "inputs": [
        {
          "indexed": false,
          "internalType": "uint256",
          "name": "date",
          "type": "uint256"
        },
        {
          "indexed": false,
          "internalType": "string",
          "name": "playerName",
          "type": "string"
        },
        {
          "indexed": false,
          "internalType": "string",
          "name": "playerTeam",
          "type": "string"
        }
      ],
      "name": "Score",
      "type": "event"
    },
    {
      "inputs": [
        {
          "internalType": "address",
          "name": "",
          "type": "address"
        }
      ],
      "name": "_players",
      "outputs": [
        {
          "internalType": "string",
          "name": "name",
          "type": "string"
        },
        {
          "internalType": "address",
          "name": "addr",
          "type": "address"
        },
        {
          "internalType": "uint256",
          "name": "goals",
          "type": "uint256"
        }
      ],
      "stateMutability": "view",
      "type": "function",
      "constant": true
    },
    {
      "inputs": [
        {
          "internalType": "address",
          "name": "",
          "type": "address"
        }
      ],
      "name": "age",
      "outputs": [
        {
          "internalType": "uint256",
          "name": "",
          "type": "uint256"
        }
      ],
      "stateMutability": "view",
      "type": "function",
      "constant": true
    },
    {
      "inputs": [],
      "name": "light",
      "outputs": [
        {
          "internalType": "enum MyContract.STATUS",
          "name": "",
          "type": "uint8"
        }
      ],
      "stateMutability": "view",
      "type": "function",
      "constant": true
    },
    {
      "inputs": [
        {
          "internalType": "uint256",
          "name": "",
          "type": "uint256"
        }
      ],
      "name": "myArray1",
      "outputs": [
        {
          "internalType": "uint256",
          "name": "",
          "type": "uint256"
        }
      ],
      "stateMutability": "view",
      "type": "function",
      "constant": true
    },
    {
      "inputs": [
        {
          "internalType": "uint256",
          "name": "",
          "type": "uint256"
        }
      ],
      "name": "nameArray",
      "outputs": [
        {
          "internalType": "string",
          "name": "",
          "type": "string"
        }
      ],
      "stateMutability": "view",
      "type": "function",
      "constant": true
    },
    {
      "inputs": [
        {
          "internalType": "uint256",
          "name": "",
          "type": "uint256"
        }
      ],
      "name": "numberArray",
      "outputs": [
        {
          "internalType": "uint256",
          "name": "",
          "type": "uint256"
        }
      ],
      "stateMutability": "view",
      "type": "function",
      "constant": true
    },
    {
      "inputs": [],
      "name": "output",
      "outputs": [
        {
          "internalType": "string",
          "name": "",
          "type": "string"
        }
      ],
      "stateMutability": "view",
      "type": "function",
      "constant": true
    },
    {
      "inputs": [
        {
          "internalType": "uint256",
          "name": "",
          "type": "uint256"
        }
      ],
      "name": "players",
      "outputs": [
        {
          "internalType": "string",
          "name": "name",
          "type": "string"
        },
        {
          "internalType": "address",
          "name": "addr",
          "type": "address"
        },
        {
          "internalType": "uint256",
          "name": "goals",
          "type": "uint256"
        }
      ],
      "stateMutability": "view",
      "type": "function",
      "constant": true
    },
    {
      "inputs": [],
      "name": "publicName",
      "outputs": [
        {
          "internalType": "string",
          "name": "",
          "type": "string"
        }
      ],
      "stateMutability": "view",
      "type": "function",
      "constant": true
    },
    {
      "inputs": [],
      "name": "sum",
      "outputs": [
        {
          "internalType": "uint256",
          "name": "",
          "type": "uint256"
        }
      ],
      "stateMutability": "view",
      "type": "function",
      "constant": true
    },
    {
      "inputs": [
        {
          "internalType": "string",
          "name": "_name",
          "type": "string"
        }
      ],
      "name": "setName",
      "outputs": [],
      "stateMutability": "nonpayable",
      "type": "function"
    },
    {
      "inputs": [],
      "name": "getName",
      "outputs": [
        {
          "internalType": "string",
          "name": "",
          "type": "string"
        }
      ],
      "stateMutability": "view",
      "type": "function",
      "constant": true
    },
    {
      "inputs": [],
      "name": "getSummary",
      "outputs": [
        {
          "internalType": "address",
          "name": "",
          "type": "address"
        },
        {
          "internalType": "uint256",
          "name": "",
          "type": "uint256"
        },
        {
          "internalType": "uint256",
          "name": "",
          "type": "uint256"
        }
      ],
      "stateMutability": "view",
      "type": "function",
      "constant": true
    },
    {
      "inputs": [
        {
          "internalType": "string",
          "name": "value",
          "type": "string"
        }
      ],
      "name": "ifStatement",
      "outputs": [
        {
          "internalType": "string",
          "name": "",
          "type": "string"
        }
      ],
      "stateMutability": "nonpayable",
      "type": "function"
    },
    {
      "inputs": [
        {
          "internalType": "uint256",
          "name": "end",
          "type": "uint256"
        }
      ],
      "name": "forLoop",
      "outputs": [
        {
          "internalType": "uint256",
          "name": "",
          "type": "uint256"
        }
      ],
      "stateMutability": "nonpayable",
      "type": "function"
    },
    {
      "inputs": [
        {
          "internalType": "uint256",
          "name": "end",
          "type": "uint256"
        }
      ],
      "name": "whileLoop",
      "outputs": [
        {
          "internalType": "string",
          "name": "",
          "type": "string"
        }
      ],
      "stateMutability": "pure",
      "type": "function",
      "constant": true
    },
    {
      "inputs": [],
      "name": "pushToArrays",
      "outputs": [],
      "stateMutability": "nonpayable",
      "type": "function"
    },
    {
      "inputs": [],
      "name": "deleteToArrays",
      "outputs": [],
      "stateMutability": "nonpayable",
      "type": "function"
    },
    {
      "inputs": [
        {
          "internalType": "uint256",
          "name": "end",
          "type": "uint256"
        }
      ],
      "name": "myFunc1",
      "outputs": [
        {
          "internalType": "uint256[]",
          "name": "",
          "type": "uint256[]"
        }
      ],
      "stateMutability": "nonpayable",
      "type": "function"
    },
    {
      "inputs": [],
      "name": "getMyArray1",
      "outputs": [
        {
          "internalType": "uint256[]",
          "name": "",
          "type": "uint256[]"
        }
      ],
      "stateMutability": "view",
      "type": "function",
      "constant": true
    },
    {
      "inputs": [],
      "name": "myFunc2",
      "outputs": [
        {
          "internalType": "uint256[]",
          "name": "",
          "type": "uint256[]"
        }
      ],
      "stateMutability": "pure",
      "type": "function",
      "constant": true
    },
    {
      "inputs": [
        {
          "internalType": "uint256[]",
          "name": "_myArray",
          "type": "uint256[]"
        }
      ],
      "name": "myFunc3",
      "outputs": [],
      "stateMutability": "nonpayable",
      "type": "function"
    },
    {
      "inputs": [
        {
          "internalType": "uint256[]",
          "name": "_myArray",
          "type": "uint256[]"
        }
      ],
      "name": "myFunc6",
      "outputs": [],
      "stateMutability": "nonpayable",
      "type": "function"
    },
    {
      "inputs": [
        {
          "internalType": "uint256",
          "name": "_age",
          "type": "uint256"
        }
      ],
      "name": "assignAge",
      "outputs": [],
      "stateMutability": "nonpayable",
      "type": "function"
    },
    {
      "inputs": [
        {
          "internalType": "address",
          "name": "_sender",
          "type": "address"
        }
      ],
      "name": "getAge",
      "outputs": [
        {
          "internalType": "uint256",
          "name": "",
          "type": "uint256"
        }
      ],
      "stateMutability": "view",
      "type": "function",
      "constant": true
    },
    {
      "inputs": [
        {
          "internalType": "string",
          "name": "_name",
          "type": "string"
        },
        {
          "internalType": "uint256",
          "name": "_goals",
          "type": "uint256"
        }
      ],
      "name": "addPlayer1",
      "outputs": [],
      "stateMutability": "nonpayable",
      "type": "function"
    },
    {
      "inputs": [],
      "name": "addPlayer2",
      "outputs": [],
      "stateMutability": "nonpayable",
      "type": "function"
    },
    {
      "inputs": [],
      "name": "switchLight",
      "outputs": [],
      "stateMutability": "nonpayable",
      "type": "function"
    },
    {
      "inputs": [],
      "name": "getLightStatus",
      "outputs": [
        {
          "internalType": "enum MyContract.STATUS",
          "name": "",
          "type": "uint8"
        }
      ],
      "stateMutability": "view",
      "type": "function",
      "constant": true
    },
    {
      "inputs": [
        {
          "internalType": "string",
          "name": "_player",
          "type": "string"
        },
        {
          "internalType": "string",
          "name": "_team",
          "type": "string"
        }
      ],
      "name": "goalScored",
      "outputs": [],
      "stateMutability": "nonpayable",
      "type": "function"
    }
  ],
  "bytecode": "0x60806040526040518060400160405280600681526020017f416e647265610000000000000000000000000000000000000000000000000000815250600890816200004a9190620003b2565b506040518060400160405280600681526020017f416e64726561000000000000000000000000000000000000000000000000000081525060099081620000919190620003b2565b506040518060400160405280600681526020017f416e647265610000000000000000000000000000000000000000000000000000815250600a9081620000d89190620003b2565b50600b80556040518060400160405280600581526020017f70697a7a61000000000000000000000000000000000000000000000000000000815250600d9081620001239190620003b2565b503480156200013157600080fd5b5062000499565b600081519050919050565b7f4e487b7100000000000000000000000000000000000000000000000000000000600052604160045260246000fd5b7f4e487b7100000000000000000000000000000000000000000000000000000000600052602260045260246000fd5b60006002820490506001821680620001ba57607f821691505b602082108103620001d057620001cf62000172565b5b50919050565b60008190508160005260206000209050919050565b60006020601f8301049050919050565b600082821b905092915050565b6000600883026200023a7fffffffffffffffffffffffffffffffffffffffffffffffffffffffffffffffff82620001fb565b620002468683620001fb565b95508019841693508086168417925050509392505050565b6000819050919050565b6000819050919050565b6000620002936200028d62000287846200025e565b62000268565b6200025e565b9050919050565b6000819050919050565b620002af8362000272565b620002c7620002be826200029a565b84845462000208565b825550505050565b600090565b620002de620002cf565b620002eb818484620002a4565b505050565b5b81811015620003135762000307600082620002d4565b600181019050620002f1565b5050565b601f82111562000362576200032c81620001d6565b6200033784620001eb565b8101602085101562000347578190505b6200035f6200035685620001eb565b830182620002f0565b50505b505050565b600082821c905092915050565b6000620003876000198460080262000367565b1980831691505092915050565b6000620003a2838362000374565b9150826002028217905092915050565b620003bd8262000138565b67ffffffffffffffff811115620003d957620003d862000143565b5b620003e58254620001a1565b620003f282828562000317565b600060209050601f8311600181146200042a576000841562000415578287015190505b62000421858262000394565b86555062000491565b601f1984166200043a86620001d6565b60005b8281101562000464578489015182556001820191506020850194506020810190506200043d565b8683101562000484578489015162000480601f89168262000374565b8355505b6001600288020188555050505b505050505050565b61237180620004a96000396000f3fe608060405234801561001057600080fd5b50600436106101da5760003560e01c8063853255cc11610104578063c47f0027116100a2578063e39f0d6411610071578063e39f0d6414610535578063ec7a73ef14610567578063f20eaeb814610583578063f71d96cb146105a1576101da565b8063c47f0027146104c3578063cd9b89e0146104df578063cfcc827b146104fb578063e05c8a301461052b576101da565b806391a035d1116100de57806391a035d114610427578063a4ef4c8014610457578063ab710f5b14610487578063b650370d146104a5576101da565b8063853255cc146103e35780638e8af8df14610401578063907714b11461041d576101da565b8063384515981161017c5780634f40df721161014b5780634f40df72146103475780635a5e80e71461036557806364dbe78c14610395578063723a62ac146103b3576101da565b806338451598146102a95780634051ddac146102d9578063456901e4146102f95780634a5ce6d514610329576101da565b8063096462fb116101b8578063096462fb1461023557806312667a521461025157806317d7de7c1461025b5780633401d7de14610279576101da565b8063022cc14c146101df578063037229d5146101fb5780630637faa41461022b575b600080fd5b6101f960048036038101906101f491906116d0565b6105d3565b005b61021560048036038101906102109190611753565b6105d7565b604051610222919061178f565b60405180910390f35b6102336105fb565b005b61024f600480360381019061024a9190611800565b61072d565b005b610259610950565b005b6102636109a0565b60405161027091906118f0565b60405180910390f35b610293600480360381019061028e9190611970565b610a32565b6040516102a0919061178f565b60405180910390f35b6102c360048036038101906102be9190611970565b610a4a565b6040516102d0919061178f565b60405180910390f35b6102e1610a93565b6040516102f0939291906119ac565b60405180910390f35b610313600480360381019061030e9190611753565b610aa6565b604051610320919061178f565b60405180910390f35b610331610ae9565b60405161033e9190611aa1565b60405180910390f35b61034f610bce565b60405161035c9190611aa1565b60405180910390f35b61037f600480360381019061037a9190611753565b610c8c565b60405161038c91906118f0565b60405180910390f35b61039d610ceb565b6040516103aa9190611b3a565b60405180910390f35b6103cd60048036038101906103c89190611753565b610cfe565b6040516103da919061178f565b60405180910390f35b6103eb610d22565b6040516103f8919061178f565b60405180910390f35b61041b60048036038101906104169190611753565b610d28565b005b610425610d6f565b005b610441600480360381019061043c9190611753565b610f24565b60405161044e9190611aa1565b60405180910390f35b610471600480360381019061046c9190611c85565b610fd2565b60405161047e91906118f0565b60405180910390f35b61048f61114a565b60405161049c9190611b3a565b60405180910390f35b6104ad611161565b6040516104ba91906118f0565b60405180910390f35b6104dd60048036038101906104d89190611c85565b6111ef565b005b6104f960048036038101906104f491906116d0565b611202565b005b61051560048036038101906105109190611753565b611206565b60405161052291906118f0565b60405180910390f35b6105336112b2565b005b61054f600480360381019061054a9190611970565b611373565b60405161055e93929190611cce565b60405180910390f35b610581600480360381019061057c9190611d0c565b611445565b005b61058b61148a565b60405161059891906118f0565b60405180910390f35b6105bb60048036038101906105b69190611753565b611518565b6040516105ca93929190611cce565b60405180910390f35b5050565b601181815481106105e757600080fd5b906000526020600020016000915090505481565b600060405180606001604052806040518060400160405280600681526020017f4d6261707065000000000000000000000000000000000000000000000000000081525081526020013373ffffffffffffffffffffffffffffffffffffffff168152602001601e8152509050600073993b3efeeef7ef1df59ef507a188e66be634d465905081601460008373ffffffffffffffffffffffffffffffffffffffff1673ffffffffffffffffffffffffffffffffffffffff16815260200190815260200160002060008201518160000190816106d49190611f99565b5060208201518160010160006101000a81548173ffffffffffffffffffffffffffffffffffffffff021916908373ffffffffffffffffffffffffffffffffffffffff160217905550604082015181600201559050505050565b6000604051806060016040528085858080601f016020809104026020016040519081016040528093929190818152602001838380828437600081840152601f19601f8201169050808301925050505050505081526020013373ffffffffffffffffffffffffffffffffffffffff1681526020018381525090506000604051806060016040528086868080601f016020809104026020016040519081016040528093929190818152602001838380828437600081840152601f19601f8201169050808301925050505050505081526020013373ffffffffffffffffffffffffffffffffffffffff168152602001848152509050601382908060018154018082558091505060019003906000526020600020906003020160009091909190915060008201518160000190816108609190611f99565b5060208201518160010160006101000a81548173ffffffffffffffffffffffffffffffffffffffff021916908373ffffffffffffffffffffffffffffffffffffffff160217905550604082015181600201555050601381908060018154018082558091505060019003906000526020600020906003020160009091909190915060008201518160000190816108f59190611f99565b5060208201518160010160006101000a81548173ffffffffffffffffffffffffffffffffffffffff021916908373ffffffffffffffffffffffffffffffffffffffff1602179055506040820151816002015550505050505050565b600f6001815481106109655761096461206b565b5b90600052602060002001600061097b91906115fa565b60106001815481106109905761098f61206b565b5b9060005260206000200160009055565b6060600480546109af90611dbc565b80601f01602080910402602001604051908101604052809291908181526020018280546109db90611dbc565b8015610a285780601f106109fd57610100808354040283529160200191610a28565b820191906000526020600020905b815481529060010190602001808311610a0b57829003601f168201915b5050505050905090565b60126020528060005260406000206000915090505481565b6000601260008373ffffffffffffffffffffffffffffffffffffffff1673ffffffffffffffffffffffffffffffffffffffff168152602001908152602001600020549050919050565b600080600033433a925092509250909192565b600080600090505b82811015610ade576001600e54610ac591906120c9565b600e819055508080610ad6906120fd565b915050610aae565b50600e549050919050565b60606000600a67ffffffffffffffff811115610b0857610b07611b5a565b5b604051908082528060200260200182016040528015610b365781602001602082028036833780820191505090505b50905060005b8151811015610b8457600281610b529190612145565b828281518110610b6557610b6461206b565b5b6020026020010181815250508080610b7c906120fd565b915050610b3c565b50600581600581518110610b9b57610b9a61206b565b5b60200260200101818152505080600381518110610bbb57610bba61206b565b5b6020026020010160008152508091505090565b60606000601180549050905060008167ffffffffffffffff811115610bf657610bf5611b5a565b5b604051908082528060200260200182016040528015610c245781602001602082028036833780820191505090505b50905060005b82811015610c835760118181548110610c4657610c4561206b565b5b9060005260206000200154828281518110610c6457610c6361206b565b5b6020026020010181815250508080610c7b906120fd565b915050610c2a565b50809250505090565b606060005b82811015610cad57600181610ca691906120c9565b9050610c91565b6040518060400160405280600481526020017f446f6e6500000000000000000000000000000000000000000000000000000000815250915050919050565b601560009054906101000a900460ff1681565b60108181548110610d0e57600080fd5b906000526020600020016000915090505481565b600e5481565b80601260003373ffffffffffffffffffffffffffffffffffffffff1673ffffffffffffffffffffffffffffffffffffffff1681526020019081526020016000208190555050565b600f80600181540180825580915050600190039060005260206000200160006040518060400160405280600781526020017f6361726c6974610000000000000000000000000000000000000000000000000081525090919091509081610dd59190611f99565b506010600b9080600181540180825580915050600190039060005260206000200160009091909190915055600f80600181540180825580915050600190039060005260206000200160006040518060400160405280600581526020017f706572727900000000000000000000000000000000000000000000000000000081525090919091509081610e669190611f99565b50601060239080600181540180825580915050600190039060005260206000200160009091909190915055600f80600181540180825580915050600190039060005260206000200160006040518060400160405280600781526020017f7068696e6561730000000000000000000000000000000000000000000000000081525090919091509081610ef79190611f99565b506010600e9080600181540180825580915050600190039060005260206000200160009091909190915055565b606060005b82811015610f79576011600282610f409190612145565b90806001815401808255809150506001900390600052602060002001600090919091909150558080610f71906120fd565b915050610f29565b506011805480602002602001604051908101604052809291908181526020018280548015610fc657602002820191906000526020600020905b815481526020019060010190808311610fb2575b50505050509050919050565b6060600d604051602001610fe69190612215565b604051602081830303815290604052805190602001208260405160200161100d919061225d565b6040516020818303038152906040528051906020012003611072576040518060400160405280600e81526020017f62756f6e61206c612070697a7a61000000000000000000000000000000000000815250600c908161106c9190611f99565b506110b8565b6040518060400160405280601681526020017f6e6f6e207469207069616365206c612070697a7a613f00000000000000000000815250600c90816110b69190611f99565b505b600c80546110c590611dbc565b80601f01602080910402602001604051908101604052809291908181526020018280546110f190611dbc565b801561113e5780601f106111135761010080835404028352916020019161113e565b820191906000526020600020905b81548152906001019060200180831161112157829003601f168201915b50505050509050919050565b6000601560009054906101000a900460ff16905090565b600a805461116e90611dbc565b80601f016020809104026020016040519081016040528092919081815260200182805461119a90611dbc565b80156111e75780601f106111bc576101008083540402835291602001916111e7565b820191906000526020600020905b8154815290600101906020018083116111ca57829003601f168201915b505050505081565b80600490816111fe9190611f99565b5050565b5050565b600f818154811061121657600080fd5b90600052602060002001600091509050805461123190611dbc565b80601f016020809104026020016040519081016040528092919081815260200182805461125d90611dbc565b80156112aa5780601f1061127f576101008083540402835291602001916112aa565b820191906000526020600020905b81548152906001019060200180831161128d57829003601f168201915b505050505081565b60006040516020016112c491906122aa565b60405160208183030381529060405280519060200120601560009054906101000a900460ff166040516020016112fa91906122aa565b6040516020818303038152906040528051906020012003611345576001601560006101000a81548160ff0219169083600181111561133b5761133a611ac3565b5b0217905550611371565b6000601560006101000a81548160ff0219169083600181111561136b5761136a611ac3565b5b02179055505b565b601460205280600052604060002060009150905080600001805461139690611dbc565b80601f01602080910402602001604051908101604052809291908181526020018280546113c290611dbc565b801561140f5780601f106113e45761010080835404028352916020019161140f565b820191906000526020600020905b8154815290600101906020018083116113f257829003601f168201915b5050505050908060010160009054906101000a900473ffffffffffffffffffffffffffffffffffffffff16908060020154905083565b7fba74004ad4978cd3d2ecfe8c15e7c5f91bd7da14e199e9ae8638f20f378a7293428585858560405161147c9594939291906122f2565b60405180910390a150505050565b600c805461149790611dbc565b80601f01602080910402602001604051908101604052809291908181526020018280546114c390611dbc565b80156115105780601f106114e557610100808354040283529160200191611510565b820191906000526020600020905b8154815290600101906020018083116114f357829003601f168201915b505050505081565b6013818154811061152857600080fd5b906000526020600020906003020160009150905080600001805461154b90611dbc565b80601f016020809104026020016040519081016040528092919081815260200182805461157790611dbc565b80156115c45780601f10611599576101008083540402835291602001916115c4565b820191906000526020600020905b8154815290600101906020018083116115a757829003601f168201915b5050505050908060010160009054906101000a900473ffffffffffffffffffffffffffffffffffffffff16908060020154905083565b50805461160690611dbc565b6000825580601f106116185750611637565b601f016020900490600052602060002090810190611636919061163a565b5b50565b5b8082111561165357600081600090555060010161163b565b5090565b6000604051905090565b600080fd5b600080fd5b600080fd5b600080fd5b600080fd5b60008083601f8401126116905761168f61166b565b5b8235905067ffffffffffffffff8111156116ad576116ac611670565b5b6020830191508360208202830111156116c9576116c8611675565b5b9250929050565b600080602083850312156116e7576116e6611661565b5b600083013567ffffffffffffffff81111561170557611704611666565b5b6117118582860161167a565b92509250509250929050565b6000819050919050565b6117308161171d565b811461173b57600080fd5b50565b60008135905061174d81611727565b92915050565b60006020828403121561176957611768611661565b5b60006117778482850161173e565b91505092915050565b6117898161171d565b82525050565b60006020820190506117a46000830184611780565b92915050565b60008083601f8401126117c0576117bf61166b565b5b8235905067ffffffffffffffff8111156117dd576117dc611670565b5b6020830191508360018202830111156117f9576117f8611675565b5b9250929050565b60008060006040848603121561181957611818611661565b5b600084013567ffffffffffffffff81111561183757611836611666565b5b611843868287016117aa565b935093505060206118568682870161173e565b9150509250925092565b600081519050919050565b600082825260208201905092915050565b60005b8381101561189a57808201518184015260208101905061187f565b60008484015250505050565b6000601f19601f8301169050919050565b60006118c282611860565b6118cc818561186b565b93506118dc81856020860161187c565b6118e5816118a6565b840191505092915050565b6000602082019050818103600083015261190a81846118b7565b905092915050565b600073ffffffffffffffffffffffffffffffffffffffff82169050919050565b600061193d82611912565b9050919050565b61194d81611932565b811461195857600080fd5b50565b60008135905061196a81611944565b92915050565b60006020828403121561198657611985611661565b5b60006119948482850161195b565b91505092915050565b6119a681611932565b82525050565b60006060820190506119c1600083018661199d565b6119ce6020830185611780565b6119db6040830184611780565b949350505050565b600081519050919050565b600082825260208201905092915050565b6000819050602082019050919050565b611a188161171d565b82525050565b6000611a2a8383611a0f565b60208301905092915050565b6000602082019050919050565b6000611a4e826119e3565b611a5881856119ee565b9350611a63836119ff565b8060005b83811015611a94578151611a7b8882611a1e565b9750611a8683611a36565b925050600181019050611a67565b5085935050505092915050565b60006020820190508181036000830152611abb8184611a43565b905092915050565b7f4e487b7100000000000000000000000000000000000000000000000000000000600052602160045260246000fd5b60028110611b0357611b02611ac3565b5b50565b6000819050611b1482611af2565b919050565b6000611b2482611b06565b9050919050565b611b3481611b19565b82525050565b6000602082019050611b4f6000830184611b2b565b92915050565b600080fd5b7f4e487b7100000000000000000000000000000000000000000000000000000000600052604160045260246000fd5b611b92826118a6565b810181811067ffffffffffffffff82111715611bb157611bb0611b5a565b5b80604052505050565b6000611bc4611657565b9050611bd08282611b89565b919050565b600067ffffffffffffffff821115611bf057611bef611b5a565b5b611bf9826118a6565b9050602081019050919050565b82818337600083830152505050565b6000611c28611c2384611bd5565b611bba565b905082815260208101848484011115611c4457611c43611b55565b5b611c4f848285611c06565b509392505050565b600082601f830112611c6c57611c6b61166b565b5b8135611c7c848260208601611c15565b91505092915050565b600060208284031215611c9b57611c9a611661565b5b600082013567ffffffffffffffff811115611cb957611cb8611666565b5b611cc584828501611c57565b91505092915050565b60006060820190508181036000830152611ce881866118b7565b9050611cf7602083018561199d565b611d046040830184611780565b949350505050565b60008060008060408587031215611d2657611d25611661565b5b600085013567ffffffffffffffff811115611d4457611d43611666565b5b611d50878288016117aa565b9450945050602085013567ffffffffffffffff811115611d7357611d72611666565b5b611d7f878288016117aa565b925092505092959194509250565b7f4e487b7100000000000000000000000000000000000000000000000000000000600052602260045260246000fd5b60006002820490506001821680611dd457607f821691505b602082108103611de757611de6611d8d565b5b50919050565b60008190508160005260206000209050919050565b60006020601f8301049050919050565b600082821b905092915050565b600060088302611e4f7fffffffffffffffffffffffffffffffffffffffffffffffffffffffffffffffff82611e12565b611e598683611e12565b95508019841693508086168417925050509392505050565b6000819050919050565b6000611e96611e91611e8c8461171d565b611e71565b61171d565b9050919050565b6000819050919050565b611eb083611e7b565b611ec4611ebc82611e9d565b848454611e1f565b825550505050565b600090565b611ed9611ecc565b611ee4818484611ea7565b505050565b5b81811015611f0857611efd600082611ed1565b600181019050611eea565b5050565b601f821115611f4d57611f1e81611ded565b611f2784611e02565b81016020851015611f36578190505b611f4a611f4285611e02565b830182611ee9565b50505b505050565b600082821c905092915050565b6000611f7060001984600802611f52565b1980831691505092915050565b6000611f898383611f5f565b9150826002028217905092915050565b611fa282611860565b67ffffffffffffffff811115611fbb57611fba611b5a565b5b611fc58254611dbc565b611fd0828285611f0c565b600060209050601f8311600181146120035760008415611ff1578287015190505b611ffb8582611f7d565b865550612063565b601f19841661201186611ded565b60005b8281101561203957848901518255600182019150602085019450602081019050612014565b868310156120565784890151612052601f891682611f5f565b8355505b6001600288020188555050505b505050505050565b7f4e487b7100000000000000000000000000000000000000000000000000000000600052603260045260246000fd5b7f4e487b7100000000000000000000000000000000000000000000000000000000600052601160045260246000fd5b60006120d48261171d565b91506120df8361171d565b92508282019050808211156120f7576120f661209a565b5b92915050565b60006121088261171d565b91507fffffffffffffffffffffffffffffffffffffffffffffffffffffffffffffffff820361213a5761213961209a565b5b600182019050919050565b60006121508261171d565b915061215b8361171d565b92508282026121698161171d565b915082820484148315176121805761217f61209a565b5b5092915050565b600081905092915050565b6000815461219f81611dbc565b6121a98186612187565b945060018216600081146121c457600181146121d95761220c565b60ff198316865281151582028601935061220c565b6121e285611ded565b60005b83811015612204578154818901526001820191506020810190506121e5565b838801955050505b50505092915050565b60006122218284612192565b915081905092915050565b600061223782611860565b6122418185612187565b935061225181856020860161187c565b80840191505092915050565b6000612269828461222c565b915081905092915050565b60008160f81b9050919050565b600061228c82612274565b9050919050565b6122a461229f82611b19565b612281565b82525050565b60006122b68284612293565b60018201915081905092915050565b60006122d1838561186b565b93506122de838584611c06565b6122e7836118a6565b840190509392505050565b60006060820190506123076000830188611780565b818103602083015261231a8186886122c5565b9050818103604083015261232f8184866122c5565b9050969550505050505056fea26469706673582212204c197cf322e3bba73c68002cefa5d59b30ac0f8ef77cc7dad964026724a9099e64736f6c63430008110033",
  "immutableReferences": {},
  "source": "pragma solidity ^0.8.17;\r\n\r\ncontract MyContract {\r\n    \r\n    // variabile a dimensione fissa\r\n    bool status; // True or False\r\n    uint price;\r\n    address _address;\r\n    bytes32 _bytes32;\r\n\r\n    // variabile a dimensione non fissa\r\n    string name;\r\n    bytes _bytes;\r\n    uint[] vector;\r\n    mapping(uint => string) dictionary;\r\n\r\n    // variabili definite ad hoc\r\n    struct Person {\r\n        string name;\r\n        string surname;\r\n        uint age;\r\n    }\r\n    enum Status {\r\n        ON,\r\n        OFF\r\n    }\r\n\r\n    // visibility (private, internal, public)\r\n    string private privateName = \"Andrea\";\r\n    string internal internalName = \"Andrea\";\r\n    string public publicName = \"Andrea\";\r\n    uint number = 11;\r\n\r\n\r\n    // FUNCTIONS\r\n\r\n    // function functionName() visibilityKeyword modifierKeyword returns(dataType)\r\n\r\n        // visibilityKeyword\r\n            // private, internal, external, public\r\n            \r\n        // modifierKeyword\r\n            // view, pure, (omitted)\r\n\r\n    function setName(string memory _name) external {\r\n        name = _name;\r\n    }\r\n\r\n    function getName() external view returns(string memory) {\r\n        return name;    \r\n    }\r\n\r\n\r\n    // SPECIAL VARIABLE & FUNCTONS\r\n\r\n    /* transactions (tx)\r\n        tx.gasprice (uint): gas price of the transaction\r\n        tx.origin (address payable): sender of the transaction (full call chain)\r\n    */\r\n\r\n    /* message (msg)\r\n        msg.data (bytes calldata): complete calldata\r\n        msg.sender (address payable): sender of the message (current call)\r\n        msg.sig (bytes4): first four bytes of the calldata (i.e. function identifier)\r\n        msg.value (uint): number of wei sent with the message \r\n    */\r\n\r\n    /* blocks (blocks)\r\n        block.coinbase (address payable): current block miners address\r\n        block.difficulty (uint): current block difficulty\r\n        block.gaslimit (uint): current block gaslimit\r\n        block.number (uint): current block number\r\n        block.timestamp (uint): current block timestamp as seconds since unix epoch\r\n    */\r\n\r\n    function getSummary() external view returns(address, uint, uint) {\r\n        return (msg.sender, block.number, tx.gasprice);\r\n    }\r\n\r\n\r\n    // IF statements\r\n    string public output;\r\n    string valueToCheck = \"pizza\";\r\n    function ifStatement(string memory value) external returns(string memory) {\r\n        if(keccak256(abi.encodePacked(value))==keccak256(abi.encodePacked(valueToCheck))){\r\n            output = \"buona la pizza\";\r\n        } \r\n        else {\r\n            output = \"non ti piace la pizza?\";\r\n        }\r\n\r\n        return output; \r\n    }\r\n\r\n    // FOR loop\r\n    uint public sum;\r\n    function forLoop(uint end) external returns(uint) {\r\n        for(uint i=0; i<end; i++){\r\n            sum = sum+1;\r\n        }\r\n        return sum;\r\n    }\r\n\r\n    // WHILE loop\r\n    function whileLoop(uint end) external pure returns(string memory) {\r\n        uint j = 0;\r\n        while(j<end) {\r\n            j = j+1;\r\n        }\r\n        return \"Done\";\r\n    }\r\n\r\n    // ARRAY or VECTORS\r\n\r\n    // Storage array\r\n    string[] public nameArray;\r\n    uint[] public numberArray;\r\n\r\n    function pushToArrays() public {\r\n        nameArray.push(\"carlita\");\r\n        numberArray.push(11);\r\n        nameArray.push(\"perry\");\r\n        numberArray.push(35);\r\n        nameArray.push(\"phineas\");\r\n        numberArray.push(14);\r\n    }\r\n    function deleteToArrays() public {\r\n        delete nameArray[1];\r\n        delete numberArray[1];\r\n    }\r\n\r\n    // Memory array\r\n    // uint[] memory myArray2 = new uint[](10);\r\n\r\n\r\n    // Examples\r\n\r\n    // storage\r\n    uint[] public myArray1;\r\n\r\n    function myFunc1(uint end) external returns(uint[] memory) {\r\n        for(uint i=0; i<end; i++) {\r\n            myArray1.push(i*2);\r\n        }\r\n        return myArray1;\r\n    }\r\n\r\n    function getMyArray1() external view returns(uint[] memory){        \r\n        uint leng = myArray1.length;\r\n        uint[] memory result = new uint[](leng);\r\n        for(uint i=0; i<leng; i++){\r\n            result[i] = myArray1[i];\r\n        }\r\n        return result;\r\n    }\r\n\r\n    // memory\r\n    function myFunc2() external pure returns(uint[] memory) {\r\n        uint[] memory myArray2 = new uint[](10);\r\n        for(uint i=0; i<myArray2.length; i++) {\r\n            myArray2[i] = i*2;\r\n        }\r\n        myArray2[5] = 5;\r\n        delete myArray2[3];\r\n        return myArray2;\r\n    }\r\n\r\n    // some rules\r\n    function myFunc3(uint[] calldata _myArray) external {}\r\n    function myFunc4(uint[] memory _myArray) internal {}\r\n    function myFunc5(uint[] memory _myArray) private {}\r\n    function myFunc6(uint[] calldata _myArray) public {}\r\n\r\n    // MAPPING\r\n    // a -> 1\r\n    // f -> 4\r\n    // p -> 2\r\n    mapping (address => uint) public age;\r\n\r\n    function assignAge(uint _age) external {\r\n        age[msg.sender] = _age;\r\n    }\r\n\r\n    function getAge(address _sender) external view returns(uint) {\r\n        return age[_sender];\r\n    }\r\n\r\n\r\n    // STRUCTURES\r\n    struct Player {\r\n        string name;\r\n        address addr;\r\n        uint goals;\r\n    }\r\n\r\n    Player[] public players;\r\n\r\n    function addPlayer1(string calldata _name, uint _goals) external {\r\n        Player memory player1 = Player({name:_name, addr:msg.sender, goals:_goals});\r\n        Player memory _player1 = Player(_name, msg.sender, _goals);\r\n        players.push(player1);\r\n        players.push(_player1);\r\n    }\r\n\r\n    // mapping of structs\r\n    mapping(address => Player) public _players;\r\n\r\n    function addPlayer2() external {\r\n        Player memory player2 = Player({name:'Mbappe', addr:msg.sender, goals: 30});\r\n        address playerAddress = 0x993b3EfEEEf7eF1DF59Ef507a188e66Be634D465;\r\n        _players[playerAddress] = player2;\r\n    }    \r\n\r\n    // ENUM\r\n    enum STATUS {\r\n        ON,\r\n        OFF\r\n    }\r\n\r\n    STATUS public light;\r\n\r\n    function switchLight() external {\r\n        if(keccak256(abi.encodePacked(light)) == keccak256(abi.encodePacked(STATUS.ON))){\r\n            light = STATUS.OFF;\r\n        } \r\n        else {\r\n            light = STATUS.ON;\r\n        }\r\n    }\r\n\r\n    function getLightStatus() external view returns(STATUS) {\r\n        return light;\r\n    }\r\n\r\n    // EVENTS\r\n    event Score (\r\n        uint256 date,\r\n        string playerName,\r\n        string playerTeam\r\n    );\r\n\r\n    function goalScored(string calldata _player, string calldata _team) external {\r\n        emit Score(block.timestamp, _player, _team);\r\n    }\r\n\r\n\r\n\r\n}\r\n\r\n// MyContract.deployed().then(function(i){contract=i;})\r\n\r\n\r\n",
  "sourcePath": "C:\\Users\\andre\\OneDrive\\Desktop\\solidity-test\\contracts\\MyContract.sol",
  "compiler": {
    "name": "solc",
    "version": "0.8.17+commit.8df45f5f.Emscripten.clang"
  },
  "schemaVersion": "3.4.10",
  "updatedAt": "2022-12-07T14:49:36.936Z",
  "networkType": "ethereum",
  "devdoc": {
    "kind": "dev",
    "methods": {},
    "version": 1
  },
  "userdoc": {
    "kind": "user",
    "methods": {},
    "version": 1
  }
}